{
  "_format": "hh-sol-artifact-1",
  "contractName": "HaqqVesting",
  "sourceName": "contracts/HaqqVesting.sol",
  "abi": [
    {
      "anonymous": false,
      "inputs": [
        {
          "indexed": true,
          "internalType": "address",
          "name": "beneficiaryAddress",
          "type": "address"
        },
        {
          "indexed": true,
          "internalType": "uint256",
          "name": "depositId",
          "type": "uint256"
        },
        {
          "indexed": true,
          "internalType": "uint256",
          "name": "timestamp",
          "type": "uint256"
        },
        {
          "indexed": false,
          "internalType": "uint256",
          "name": "sumInWeiDeposited",
          "type": "uint256"
        },
        {
          "indexed": false,
          "internalType": "address",
          "name": "depositedBy",
          "type": "address"
        }
      ],
      "name": "DepositMade",
      "type": "event"
    },
    {
      "anonymous": false,
      "inputs": [
        {
          "indexed": false,
          "internalType": "uint8",
          "name": "version",
          "type": "uint8"
        }
      ],
      "name": "Initialized",
      "type": "event"
    },
    {
      "anonymous": false,
      "inputs": [
        {
          "indexed": true,
          "internalType": "address",
          "name": "beneficiary",
          "type": "address"
        },
        {
          "indexed": false,
          "internalType": "uint256",
          "name": "sumInWei",
          "type": "uint256"
        },
        {
          "indexed": true,
          "internalType": "address",
          "name": "triggeredByAddress",
          "type": "address"
        }
      ],
      "name": "WithdrawalMade",
      "type": "event"
    },
    {
      "inputs": [],
      "name": "MAX_DEPOSITS",
      "outputs": [
        {
          "internalType": "uint256",
          "name": "",
          "type": "uint256"
        }
      ],
      "stateMutability": "view",
      "type": "function"
    },
    {
      "inputs": [],
      "name": "NUMBER_OF_PAYMENTS",
      "outputs": [
        {
          "internalType": "uint256",
          "name": "",
          "type": "uint256"
        }
      ],
      "stateMutability": "view",
      "type": "function"
    },
    {
      "inputs": [],
      "name": "TIME_BETWEEN_PAYMENTS",
      "outputs": [
        {
          "internalType": "uint256",
          "name": "",
          "type": "uint256"
        }
      ],
      "stateMutability": "view",
      "type": "function"
    },
    {
      "inputs": [
        {
          "internalType": "address",
          "name": "_beneficiaryAddress",
          "type": "address"
        },
        {
          "internalType": "uint256",
          "name": "_depositId",
          "type": "uint256"
        }
      ],
      "name": "amountForOneWithdrawal",
      "outputs": [
        {
          "internalType": "uint256",
          "name": "",
          "type": "uint256"
        }
      ],
      "stateMutability": "view",
      "type": "function"
    },
    {
      "inputs": [
        {
          "internalType": "address",
          "name": "_beneficiaryAddress",
          "type": "address"
        },
        {
          "internalType": "uint256",
          "name": "_depositId",
          "type": "uint256"
        }
      ],
      "name": "amountToWithdrawNow",
      "outputs": [
        {
          "internalType": "uint256",
          "name": "",
          "type": "uint256"
        }
      ],
      "stateMutability": "view",
      "type": "function"
    },
    {
      "inputs": [
        {
          "internalType": "address",
          "name": "_beneficiaryAddress",
          "type": "address"
        }
      ],
      "name": "calculateAvailableSumForAllDeposits",
      "outputs": [
        {
          "internalType": "uint256",
          "name": "",
          "type": "uint256"
        }
      ],
      "stateMutability": "view",
      "type": "function"
    },
    {
      "inputs": [
        {
          "internalType": "address",
          "name": "_beneficiaryAddress",
          "type": "address"
        }
      ],
      "name": "deposit",
      "outputs": [
        {
          "internalType": "bool",
          "name": "success",
          "type": "bool"
        }
      ],
      "stateMutability": "payable",
      "type": "function"
    },
    {
      "inputs": [
        {
          "internalType": "address",
          "name": "",
          "type": "address"
        },
        {
          "internalType": "uint256",
          "name": "",
          "type": "uint256"
        }
      ],
      "name": "deposits",
      "outputs": [
        {
          "internalType": "uint256",
          "name": "timestamp",
          "type": "uint256"
        },
        {
          "internalType": "uint256",
          "name": "sumInWeiDeposited",
          "type": "uint256"
        },
        {
          "internalType": "uint256",
          "name": "sumPaidAlready",
          "type": "uint256"
        }
      ],
      "stateMutability": "view",
      "type": "function"
    },
    {
      "inputs": [
        {
          "internalType": "address",
          "name": "",
          "type": "address"
        }
      ],
      "name": "depositsCounter",
      "outputs": [
        {
          "internalType": "uint256",
          "name": "",
          "type": "uint256"
        }
      ],
      "stateMutability": "view",
      "type": "function"
    },
    {
      "inputs": [
        {
          "internalType": "address",
          "name": "_beneficiaryAddress",
          "type": "address"
        },
        {
          "internalType": "uint256",
          "name": "_depositId",
          "type": "uint256"
        }
      ],
      "name": "totalPayoutsUnblocked",
      "outputs": [
        {
          "internalType": "uint256",
          "name": "",
          "type": "uint256"
        }
      ],
      "stateMutability": "view",
      "type": "function"
    },
    {
      "inputs": [
        {
          "internalType": "address",
          "name": "_newBeneficiaryAddress",
          "type": "address"
        }
      ],
      "name": "transferDepositRights",
      "outputs": [],
      "stateMutability": "nonpayable",
      "type": "function"
    },
    {
      "inputs": [
        {
          "internalType": "address",
          "name": "_beneficiaryAddress",
          "type": "address"
        }
      ],
      "name": "withdraw",
      "outputs": [
        {
          "internalType": "bool",
          "name": "success",
          "type": "bool"
        }
      ],
      "stateMutability": "nonpayable",
      "type": "function"
    }
  ],
  "bytecode": "0x608060405234801561001057600080fd5b50611b0b806100206000396000f3fe6080604052600436106100a75760003560e01c8063ba766c9811610064578063ba766c9814610208578063d6d6817714610233578063de1b905214610272578063f340fa011461029d578063f8d7d41e146102cd578063fa83fb351461030a576100a7565b80631d004a31146100ac57806337bad3c0146100e95780633db35bf41461012657806351cff8d9146101635780638c860969146101a057806396a087f3146101dd575b600080fd5b3480156100b857600080fd5b506100d360048036038101906100ce9190611446565b610333565b6040516100e09190611495565b60405180910390f35b3480156100f557600080fd5b50610110600480360381019061010b91906114b0565b61039d565b60405161011d9190611495565b60405180910390f35b34801561013257600080fd5b5061014d600480360381019061014891906114b0565b6103b5565b60405161015a9190611495565b60405180910390f35b34801561016f57600080fd5b5061018a600480360381019061018591906114b0565b610482565b60405161019791906114f8565b60405180910390f35b3480156101ac57600080fd5b506101c760048036038101906101c29190611446565b6107f2565b6040516101d49190611495565b60405180910390f35b3480156101e957600080fd5b506101f2610922565b6040516101ff9190611495565b60405180910390f35b34801561021457600080fd5b5061021d610927565b60405161022a9190611495565b60405180910390f35b34801561023f57600080fd5b5061025a60048036038101906102559190611446565b61092c565b60405161026993929190611513565b60405180910390f35b34801561027e57600080fd5b50610287610963565b6040516102949190611495565b60405180910390f35b6102b760048036038101906102b291906114b0565b610968565b6040516102c491906114f8565b60405180910390f35b3480156102d957600080fd5b506102f460048036038101906102ef9190611446565b610e00565b6040516103019190611495565b60405180910390f35b34801561031657600080fd5b50610331600480360381019061032c91906114b0565b610ef6565b005b60006014603460008573ffffffffffffffffffffffffffffffffffffffff1673ffffffffffffffffffffffffffffffffffffffff16815260200190815260200160002060008481526020019081526020016000206001015461039591906115a8565b905092915050565b60336020528060005260406000206000915090505481565b6000806000603360008573ffffffffffffffffffffffffffffffffffffffff1673ffffffffffffffffffffffffffffffffffffffff168152602001908152602001600020541115610479576000600190505b603360008573ffffffffffffffffffffffffffffffffffffffff1673ffffffffffffffffffffffffffffffffffffffff168152602001908152602001600020548111610477576104578482610e00565b8261046291906115d9565b9150808061046f9061162f565b915050610407565b505b80915050919050565b6000600260015414156104ca576040517f08c379a00000000000000000000000000000000000000000000000000000000081526004016104c1906116d5565b60405180910390fd5b6002600181905550600080603360008573ffffffffffffffffffffffffffffffffffffffff1673ffffffffffffffffffffffffffffffffffffffff1681526020019081526020016000205411610555576040517f08c379a000000000000000000000000000000000000000000000000000000000815260040161054c90611741565b60405180910390fd5b6000600190505b603360008573ffffffffffffffffffffffffffffffffffffffff1673ffffffffffffffffffffffffffffffffffffffff1681526020019081526020016000205481116106885760006105ae8583610e00565b905080836105bc91906115d9565b925080603460008773ffffffffffffffffffffffffffffffffffffffff1673ffffffffffffffffffffffffffffffffffffffff16815260200190815260200160002060008481526020019081526020016000206002015461061d91906115d9565b603460008773ffffffffffffffffffffffffffffffffffffffff1673ffffffffffffffffffffffffffffffffffffffff1681526020019081526020016000206000848152602001908152602001600020600201819055505080806106809061162f565b91505061055c565b50600081116106cc576040517f08c379a00000000000000000000000000000000000000000000000000000000081526004016106c3906117ad565b60405180910390fd5b6000808473ffffffffffffffffffffffffffffffffffffffff16836040516106f3906117fe565b60006040518083038185875af1925050503d8060008114610730576040519150601f19603f3d011682016040523d82523d6000602084013e610735565b606091505b50915091508161077a576040517f08c379a00000000000000000000000000000000000000000000000000000000081526004016107719061185f565b60405180910390fd5b3373ffffffffffffffffffffffffffffffffffffffff168573ffffffffffffffffffffffffffffffffffffffff167f565848cdb1369b8f0e5b0f6eb298a192163a96cf9f692903ec5f14cd2c0b7b65856040516107d79190611495565b60405180910390a36001935050505060018081905550919050565b600080603460008573ffffffffffffffffffffffffffffffffffffffff1673ffffffffffffffffffffffffffffffffffffffff16815260200190815260200160002060008481526020019081526020016000206000015411610889576040517f08c379a0000000000000000000000000000000000000000000000000000000008152600401610880906118f1565b60405180910390fd5b6000603460008573ffffffffffffffffffffffffffffffffffffffff1673ffffffffffffffffffffffffffffffffffffffff168152602001908152602001600020600084815260200190815260200160002060000154426108ea9190611911565b9050600060016078836108fd91906115a8565b61090791906115d9565b9050601481111561091757601490505b809250505092915050565b601481565b607881565b6034602052816000526040600020602052806000526040600020600091509150508060000154908060010154908060020154905083565b600a81565b6000600260015414156109b0576040517f08c379a00000000000000000000000000000000000000000000000000000000081526004016109a7906116d5565b60405180910390fd5b600260018190555060006001603360008573ffffffffffffffffffffffffffffffffffffffff1673ffffffffffffffffffffffffffffffffffffffff16815260200190815260200160002054610a0691906115d9565b9050600a811115610a4c576040517f08c379a0000000000000000000000000000000000000000000000000000000008152600401610a43906119b7565b60405180910390fd5b6000601434610a5b91906115a8565b90506000808573ffffffffffffffffffffffffffffffffffffffff1683604051610a84906117fe565b60006040518083038185875af1925050503d8060008114610ac1576040519150601f19603f3d011682016040523d82523d6000602084013e610ac6565b606091505b509150915081610b0b576040517f08c379a0000000000000000000000000000000000000000000000000000000008152600401610b029061185f565b60405180910390fd5b83603360008873ffffffffffffffffffffffffffffffffffffffff1673ffffffffffffffffffffffffffffffffffffffff1681526020019081526020016000208190555082603460008873ffffffffffffffffffffffffffffffffffffffff1673ffffffffffffffffffffffffffffffffffffffff168152602001908152602001600020600086815260200190815260200160002060020154610bae91906115d9565b603460008873ffffffffffffffffffffffffffffffffffffffff1673ffffffffffffffffffffffffffffffffffffffff16815260200190815260200160002060008681526020019081526020016000206002018190555042603460008873ffffffffffffffffffffffffffffffffffffffff1673ffffffffffffffffffffffffffffffffffffffff16815260200190815260200160002060008681526020019081526020016000206000018190555034603460008873ffffffffffffffffffffffffffffffffffffffff1673ffffffffffffffffffffffffffffffffffffffff168152602001908152602001600020600086815260200190815260200160002060010181905550603460008773ffffffffffffffffffffffffffffffffffffffff1673ffffffffffffffffffffffffffffffffffffffff168152602001908152602001600020600085815260200190815260200160002060000154603360008873ffffffffffffffffffffffffffffffffffffffff1673ffffffffffffffffffffffffffffffffffffffff168152602001908152602001600020548773ffffffffffffffffffffffffffffffffffffffff167f7a96fe6dfcc54565c447f8c7708e3eadc4fc71f36ae29781f6617d3da8551c4b603460008b73ffffffffffffffffffffffffffffffffffffffff1673ffffffffffffffffffffffffffffffffffffffff16815260200190815260200160002060008981526020019081526020016000206001015433604051610de49291906119e6565b60405180910390a4600194505050505060018081905550919050565b6000806000610e0f85856107f2565b90506014811415610e7557603460008673ffffffffffffffffffffffffffffffffffffffff1673ffffffffffffffffffffffffffffffffffffffff1681526020019081526020016000206000858152602001908152602001600020600101549150610e8d565b610e7f8585610333565b81610e8a9190611a0f565b91505b603460008673ffffffffffffffffffffffffffffffffffffffff1673ffffffffffffffffffffffffffffffffffffffff16815260200190815260200160002060008581526020019081526020016000206002015482610eec9190611911565b9250505092915050565b6000603360003373ffffffffffffffffffffffffffffffffffffffff1673ffffffffffffffffffffffffffffffffffffffff1681526020019081526020016000205411610f78576040517f08c379a0000000000000000000000000000000000000000000000000000000008152600401610f6f90611741565b60405180910390fd5b6000603360008373ffffffffffffffffffffffffffffffffffffffff1673ffffffffffffffffffffffffffffffffffffffff1681526020019081526020016000205414610ffa576040517f08c379a0000000000000000000000000000000000000000000000000000000008152600401610ff190611ab5565b60405180910390fd5b6000600190505b603360003373ffffffffffffffffffffffffffffffffffffffff1673ffffffffffffffffffffffffffffffffffffffff1681526020019081526020016000205481116112e157603460003373ffffffffffffffffffffffffffffffffffffffff1673ffffffffffffffffffffffffffffffffffffffff1681526020019081526020016000206000828152602001908152602001600020603460008473ffffffffffffffffffffffffffffffffffffffff1673ffffffffffffffffffffffffffffffffffffffff1681526020019081526020016000206000838152602001908152602001600020600082015481600001556001820154816001015560028201548160020155905050604051806060016040528060008152602001600081526020016000815250603460003373ffffffffffffffffffffffffffffffffffffffff1673ffffffffffffffffffffffffffffffffffffffff1681526020019081526020016000206000838152602001908152602001600020600082015181600001556020820151816001015560408201518160020155905050603460008373ffffffffffffffffffffffffffffffffffffffff1673ffffffffffffffffffffffffffffffffffffffff168152602001908152602001600020600082815260200190815260200160002060000154603360008473ffffffffffffffffffffffffffffffffffffffff1673ffffffffffffffffffffffffffffffffffffffff168152602001908152602001600020548373ffffffffffffffffffffffffffffffffffffffff167f7a96fe6dfcc54565c447f8c7708e3eadc4fc71f36ae29781f6617d3da8551c4b603460008773ffffffffffffffffffffffffffffffffffffffff1673ffffffffffffffffffffffffffffffffffffffff168152602001908152602001600020600086815260200190815260200160002060010154336040516112c69291906119e6565b60405180910390a480806112d99061162f565b915050611001565b50603360003373ffffffffffffffffffffffffffffffffffffffff1673ffffffffffffffffffffffffffffffffffffffff16815260200190815260200160002054603360008373ffffffffffffffffffffffffffffffffffffffff1673ffffffffffffffffffffffffffffffffffffffff168152602001908152602001600020819055506000603360003373ffffffffffffffffffffffffffffffffffffffff1673ffffffffffffffffffffffffffffffffffffffff1681526020019081526020016000208190555050565b600080fd5b600073ffffffffffffffffffffffffffffffffffffffff82169050919050565b60006113dd826113b2565b9050919050565b6113ed816113d2565b81146113f857600080fd5b50565b60008135905061140a816113e4565b92915050565b6000819050919050565b61142381611410565b811461142e57600080fd5b50565b6000813590506114408161141a565b92915050565b6000806040838503121561145d5761145c6113ad565b5b600061146b858286016113fb565b925050602061147c85828601611431565b9150509250929050565b61148f81611410565b82525050565b60006020820190506114aa6000830184611486565b92915050565b6000602082840312156114c6576114c56113ad565b5b60006114d4848285016113fb565b91505092915050565b60008115159050919050565b6114f2816114dd565b82525050565b600060208201905061150d60008301846114e9565b92915050565b60006060820190506115286000830186611486565b6115356020830185611486565b6115426040830184611486565b949350505050565b7f4e487b7100000000000000000000000000000000000000000000000000000000600052601260045260246000fd5b7f4e487b7100000000000000000000000000000000000000000000000000000000600052601160045260246000fd5b60006115b382611410565b91506115be83611410565b9250826115ce576115cd61154a565b5b828204905092915050565b60006115e482611410565b91506115ef83611410565b9250827fffffffffffffffffffffffffffffffffffffffffffffffffffffffffffffffff0382111561162457611623611579565b5b828201905092915050565b600061163a82611410565b91507fffffffffffffffffffffffffffffffffffffffffffffffffffffffffffffffff82141561166d5761166c611579565b5b600182019050919050565b600082825260208201905092915050565b7f5265656e7472616e637947756172643a207265656e7472616e742063616c6c00600082015250565b60006116bf601f83611678565b91506116ca82611689565b602082019050919050565b600060208201905081810360008301526116ee816116b2565b9050919050565b7f4e6f206465706f7369747320666f722074686973206164647265737300000000600082015250565b600061172b601c83611678565b9150611736826116f5565b602082019050919050565b6000602082019050818103600083015261175a8161171e565b9050919050565b7f53756d20746f2077697468647261772073686f756c64206265203e2030000000600082015250565b6000611797601d83611678565b91506117a282611761565b602082019050919050565b600060208201905081810360008301526117c68161178a565b9050919050565b600081905092915050565b50565b60006117e86000836117cd565b91506117f3826117d8565b600082019050919050565b6000611809826117db565b9150819050919050565b7f4661696c656420746f2073656e64204574686572000000000000000000000000600082015250565b6000611849601483611678565b915061185482611813565b602082019050919050565b600060208201905081810360008301526118788161183c565b9050919050565b7f4e6f206465706f7369742077697468207468697320494420666f72207468697360008201527f2061646472657373000000000000000000000000000000000000000000000000602082015250565b60006118db602883611678565b91506118e68261187f565b604082019050919050565b6000602082019050818103600083015261190a816118ce565b9050919050565b600061191c82611410565b915061192783611410565b92508282101561193a57611939611579565b5b828203905092915050565b7f4d6178206465706f736974206e756d62657220666f722074686973206164647260008201527f6573732072656163686564000000000000000000000000000000000000000000602082015250565b60006119a1602b83611678565b91506119ac82611945565b604082019050919050565b600060208201905081810360008301526119d081611994565b9050919050565b6119e0816113d2565b82525050565b60006040820190506119fb6000830185611486565b611a0860208301846119d7565b9392505050565b6000611a1a82611410565b9150611a2583611410565b9250817fffffffffffffffffffffffffffffffffffffffffffffffffffffffffffffffff0483118215151615611a5e57611a5d611579565b5b828202905092915050565b7f4f6e6c7920656d707479206163636f756e7420697320616c6c6f776564000000600082015250565b6000611a9f601d83611678565b9150611aaa82611a69565b602082019050919050565b60006020820190508181036000830152611ace81611a92565b905091905056fea264697066735822122010f5d5b88c7c2e8cff9d50c8c6cce812a419c472649808257ecd0213937a699564736f6c634300080c0033",
  "linkReferences": {},
  "deployedLinkReferences": {}
}