{
  "_format": "hh-sol-artifact-1",
  "contractName": "HaqqVestingV3",
  "sourceName": "src/contracts/HaqqVestingV3.sol",
  "abi": [
    {
      "anonymous": false,
      "inputs": [
        {
          "indexed": true,
          "internalType": "address",
          "name": "beneficiaryAddress",
          "type": "address"
        },
        {
          "indexed": true,
          "internalType": "uint256",
          "name": "depositId",
          "type": "uint256"
        },
        {
          "indexed": true,
          "internalType": "uint256",
          "name": "timestamp",
          "type": "uint256"
        },
        {
          "indexed": false,
          "internalType": "uint256",
          "name": "sumInWeiDeposited",
          "type": "uint256"
        },
        {
          "indexed": false,
          "internalType": "address",
          "name": "depositedBy",
          "type": "address"
        }
      ],
      "name": "DepositMade",
      "type": "event"
    },
    {
      "anonymous": false,
      "inputs": [
        {
          "indexed": false,
          "internalType": "uint8",
          "name": "version",
          "type": "uint8"
        }
      ],
      "name": "Initialized",
      "type": "event"
    },
    {
      "anonymous": false,
      "inputs": [
        {
          "indexed": true,
          "internalType": "address",
          "name": "beneficiary",
          "type": "address"
        },
        {
          "indexed": false,
          "internalType": "uint256",
          "name": "sumInWei",
          "type": "uint256"
        },
        {
          "indexed": true,
          "internalType": "address",
          "name": "triggeredByAddress",
          "type": "address"
        }
      ],
      "name": "WithdrawalMade",
      "type": "event"
    },
    {
      "inputs": [],
      "name": "MAX_DEPOSITS",
      "outputs": [
        {
          "internalType": "uint256",
          "name": "",
          "type": "uint256"
        }
      ],
      "stateMutability": "view",
      "type": "function"
    },
    {
      "inputs": [],
      "name": "NUMBER_OF_PAYMENTS",
      "outputs": [
        {
          "internalType": "uint256",
          "name": "",
          "type": "uint256"
        }
      ],
      "stateMutability": "view",
      "type": "function"
    },
    {
      "inputs": [],
      "name": "TIME_BETWEEN_PAYMENTS",
      "outputs": [
        {
          "internalType": "uint256",
          "name": "",
          "type": "uint256"
        }
      ],
      "stateMutability": "view",
      "type": "function"
    },
    {
      "inputs": [
        {
          "internalType": "address",
          "name": "_beneficiaryAddress",
          "type": "address"
        },
        {
          "internalType": "uint256",
          "name": "_depositId",
          "type": "uint256"
        }
      ],
      "name": "amountForOneWithdrawal",
      "outputs": [
        {
          "internalType": "uint256",
          "name": "",
          "type": "uint256"
        }
      ],
      "stateMutability": "view",
      "type": "function"
    },
    {
      "inputs": [
        {
          "internalType": "address",
          "name": "_beneficiaryAddress",
          "type": "address"
        },
        {
          "internalType": "uint256",
          "name": "_depositId",
          "type": "uint256"
        }
      ],
      "name": "amountToWithdrawNow",
      "outputs": [
        {
          "internalType": "uint256",
          "name": "",
          "type": "uint256"
        }
      ],
      "stateMutability": "view",
      "type": "function"
    },
    {
      "inputs": [
        {
          "internalType": "address",
          "name": "_beneficiaryAddress",
          "type": "address"
        }
      ],
      "name": "calculateAvailableSumForAllDeposits",
      "outputs": [
        {
          "internalType": "uint256",
          "name": "",
          "type": "uint256"
        }
      ],
      "stateMutability": "view",
      "type": "function"
    },
    {
      "inputs": [
        {
          "internalType": "address",
          "name": "_beneficiaryAddress",
          "type": "address"
        }
      ],
      "name": "calculateTotalRemainingForAllDeposits",
      "outputs": [
        {
          "internalType": "uint256",
          "name": "",
          "type": "uint256"
        }
      ],
      "stateMutability": "view",
      "type": "function"
    },
    {
      "inputs": [
        {
          "internalType": "address",
          "name": "_beneficiaryAddress",
          "type": "address"
        }
      ],
      "name": "contains",
      "outputs": [
        {
          "internalType": "bool",
          "name": "",
          "type": "bool"
        }
      ],
      "stateMutability": "view",
      "type": "function"
    },
    {
      "inputs": [
        {
          "internalType": "address[]",
          "name": "depositors",
          "type": "address[]"
        }
      ],
      "name": "createIndex",
      "outputs": [],
      "stateMutability": "nonpayable",
      "type": "function"
    },
    {
      "inputs": [
        {
          "internalType": "address",
          "name": "_beneficiaryAddress",
          "type": "address"
        }
      ],
      "name": "deposit",
      "outputs": [
        {
          "internalType": "bool",
          "name": "success",
          "type": "bool"
        }
      ],
      "stateMutability": "payable",
      "type": "function"
    },
    {
      "inputs": [
        {
          "internalType": "address",
          "name": "",
          "type": "address"
        },
        {
          "internalType": "uint256",
          "name": "",
          "type": "uint256"
        }
      ],
      "name": "deposits",
      "outputs": [
        {
          "internalType": "uint256",
          "name": "timestamp",
          "type": "uint256"
        },
        {
          "internalType": "uint256",
          "name": "sumInWeiDeposited",
          "type": "uint256"
        },
        {
          "internalType": "uint256",
          "name": "sumPaidAlready",
          "type": "uint256"
        }
      ],
      "stateMutability": "view",
      "type": "function"
    },
    {
      "inputs": [
        {
          "internalType": "address",
          "name": "",
          "type": "address"
        }
      ],
      "name": "depositsCounter",
      "outputs": [
        {
          "internalType": "uint256",
          "name": "",
          "type": "uint256"
        }
      ],
      "stateMutability": "view",
      "type": "function"
    },
    {
      "inputs": [],
      "name": "getAllDeposits",
      "outputs": [
        {
          "components": [
            {
              "internalType": "address",
              "name": "owner",
              "type": "address"
            },
            {
              "internalType": "uint256",
              "name": "timestamp",
              "type": "uint256"
            },
            {
              "internalType": "uint256",
              "name": "sumInWeiDeposited",
              "type": "uint256"
            },
            {
              "internalType": "uint256",
              "name": "sumPaidAlready",
              "type": "uint256"
            },
            {
              "internalType": "uint256",
              "name": "sumLeftToPay",
              "type": "uint256"
            }
          ],
          "internalType": "struct HaqqVestingV3.ExtendedDeposit[]",
          "name": "allDeposits",
          "type": "tuple[]"
        }
      ],
      "stateMutability": "view",
      "type": "function"
    },
    {
      "inputs": [],
      "name": "indexKeys",
      "outputs": [
        {
          "internalType": "address[]",
          "name": "",
          "type": "address[]"
        }
      ],
      "stateMutability": "view",
      "type": "function"
    },
    {
      "inputs": [],
      "name": "indexSize",
      "outputs": [
        {
          "internalType": "uint256",
          "name": "",
          "type": "uint256"
        }
      ],
      "stateMutability": "view",
      "type": "function"
    },
    {
      "inputs": [
        {
          "internalType": "uint256",
          "name": "",
          "type": "uint256"
        }
      ],
      "name": "keyArray",
      "outputs": [
        {
          "internalType": "address",
          "name": "",
          "type": "address"
        }
      ],
      "stateMutability": "view",
      "type": "function"
    },
    {
      "inputs": [
        {
          "internalType": "address",
          "name": "_beneficiaryAddress",
          "type": "address"
        },
        {
          "internalType": "uint256",
          "name": "_depositId",
          "type": "uint256"
        }
      ],
      "name": "totalPayoutsUnblocked",
      "outputs": [
        {
          "internalType": "uint256",
          "name": "",
          "type": "uint256"
        }
      ],
      "stateMutability": "view",
      "type": "function"
    },
    {
      "inputs": [
        {
          "internalType": "address",
          "name": "_newBeneficiaryAddress",
          "type": "address"
        }
      ],
      "name": "transferDepositRights",
      "outputs": [],
      "stateMutability": "nonpayable",
      "type": "function"
    },
    {
      "inputs": [
        {
          "internalType": "address",
          "name": "_beneficiaryAddress",
          "type": "address"
        }
      ],
      "name": "withdraw",
      "outputs": [
        {
          "internalType": "bool",
          "name": "success",
          "type": "bool"
        }
      ],
      "stateMutability": "nonpayable",
      "type": "function"
    }
  ],
  "bytecode": "0x608060405234801561001057600080fd5b506117b1806100206000396000f3fe6080604052600436106101145760003560e01c8063928b01b0116100a0578063d7f4be3611610064578063d7f4be3614610348578063de1b90521461036a578063f340fa011461037f578063f8d7d41e14610392578063fa83fb35146103b257600080fd5b8063928b01b01461027657806396a087f314610298578063ba766c98146102ad578063d3f3f5ea146102c4578063d6d68177146102e657600080fd5b80633db35bf4116100e75780633db35bf4146101d157806346e3f0d4146101f157806351cff8d9146102065780635dbe47e8146102365780638c8609691461025657600080fd5b80630daa2a71146101195780631d004a31146101565780632f100b491461018457806337bad3c0146101a4575b600080fd5b34801561012557600080fd5b506101396101343660046114c4565b6103d2565b6040516001600160a01b0390911681526020015b60405180910390f35b34801561016257600080fd5b506101766101713660046114f9565b6103fc565b60405190815260200161014d565b34801561019057600080fd5b5061017661019f366004611523565b610436565b3480156101b057600080fd5b506101766101bf366004611523565b60336020526000908152604090205481565b3480156101dd57600080fd5b506101766101ec366004611523565b6104da565b3480156101fd57600080fd5b50603554610176565b34801561021257600080fd5b50610226610221366004611523565b610544565b604051901515815260200161014d565b34801561024257600080fd5b50610226610251366004611523565b6107b9565b34801561026257600080fd5b506101766102713660046114f9565b610823565b34801561028257600080fd5b5061029661029136600461153e565b610907565b005b3480156102a457600080fd5b50610176601881565b3480156102b957600080fd5b5061017662278d0081565b3480156102d057600080fd5b506102d9610a6e565b60405161014d91906115b3565b3480156102f257600080fd5b5061032d6103013660046114f9565b603460209081526000928352604080842090915290825290208054600182015460029092015490919083565b6040805193845260208401929092529082015260600161014d565b34801561035457600080fd5b5061035d610c9d565b60405161014d919061162a565b34801561037657600080fd5b50610176600581565b61022661038d366004611523565b610cff565b34801561039e57600080fd5b506101766103ad3660046114f9565b61107b565b3480156103be57600080fd5b506102966103cd366004611523565b611114565b603581815481106103e257600080fd5b6000918252602090912001546001600160a01b0316905081565b6001600160a01b038216600090815260346020908152604080832084845290915281206001015461042f9060189061168d565b9392505050565b6001600160a01b0381166000908152603360205260408120548190156104d45760015b6001600160a01b03841660009081526033602052604090205481116104d2576001600160a01b0384166000908152603460209081526040808320848452909152812060028101546001909101546104b091906116af565b90506104bc81846116c6565b92505080806104ca906116de565b915050610459565b505b92915050565b6001600160a01b0381166000908152603360205260408120548190156104d45760015b6001600160a01b03841660009081526033602052604090205481116104d257610526848261107b565b61053090836116c6565b91508061053c816116de565b9150506104fd565b60006002600154141561059e5760405162461bcd60e51b815260206004820152601f60248201527f5265656e7472616e637947756172643a207265656e7472616e742063616c6c0060448201526064015b60405180910390fd5b60026001556001600160a01b0382166000908152603360205260408120546105d85760405162461bcd60e51b8152600401610595906116f9565b60015b6001600160a01b0384166000908152603360205260409020548111610681576000610606858361107b565b905061061281846116c6565b6001600160a01b03861660009081526034602090815260408083208684529091529020600201549093506106479082906116c6565b6001600160a01b03861660009081526034602090815260408083208684529091529020600201555080610679816116de565b9150506105db565b50600081116106d25760405162461bcd60e51b815260206004820152601d60248201527f53756d20746f2077697468647261772073686f756c64206265203e20300000006044820152606401610595565b6000836001600160a01b03168260405160006040518083038185875af1925050503d806000811461071f576040519150601f19603f3d011682016040523d82523d6000602084013e610724565b606091505b505090508061076c5760405162461bcd60e51b81526020600482015260146024820152732330b4b632b2103a379039b2b7321022ba3432b960611b6044820152606401610595565b60405182815233906001600160a01b038616907f565848cdb1369b8f0e5b0f6eb298a192163a96cf9f692903ec5f14cd2c0b7b659060200160405180910390a35050600180805592915050565b6000805b60355481101561081a57826001600160a01b0316603582815481106107e4576107e4611730565b6000918252602090912001546001600160a01b031614156108085750600192915050565b80610812816116de565b9150506107bd565b50600092915050565b6001600160a01b03821660009081526034602090815260408083208484529091528120546108a45760405162461bcd60e51b815260206004820152602860248201527f4e6f206465706f7369742077697468207468697320494420666f722074686973604482015267206164647265737360c01b6064820152608401610595565b6001600160a01b038316600090815260346020908152604080832085845290915281205462278d00906108d790426116af565b6108e1919061168d565b6108ec9060016116c6565b9050601881116108fc57806108ff565b60185b949350505050565b603554156109575760405162461bcd60e51b815260206004820152601f60248201527f6b6579417272617920697320616c726561647920696e697469616c697a6564006044820152606401610595565b60005b81811015610a695760006033600085858581811061097a5761097a611730565b905060200201602081019061098f9190611523565b6001600160a01b03166001600160a01b0316815260200190815260200160002054116109cd5760405162461bcd60e51b8152600401610595906116f9565b6109f78383838181106109e2576109e2611730565b90506020020160208101906102519190611523565b610a57576035838383818110610a0f57610a0f611730565b9050602002016020810190610a249190611523565b81546001810183556000928352602090922090910180546001600160a01b0319166001600160a01b039092169190911790555b80610a61816116de565b91505061095a565b505050565b60606000805b603554811015610ad8576033600060358381548110610a9557610a95611730565b60009182526020808320909101546001600160a01b03168352820192909252604001902054610ac490836116c6565b915080610ad0816116de565b915050610a74565b508067ffffffffffffffff811115610af257610af2611746565b604051908082528060200260200182016040528015610b5e57816020015b610b4b6040518060a0016040528060006001600160a01b03168152602001600081526020016000815260200160008152602001600081525090565b815260200190600190039081610b105790505b5091506000805b603554811015610c9757600060358281548110610b8457610b84611730565b6000918252602090912001546001600160a01b0316905060015b6001600160a01b0382166000908152603360205260409020548111610c82576001600160a01b0382166000818152603460209081526040808320858452825291829020825160608082018552825482526001830154828501908152600290930154828601908152855160a081018752968752825194870194909452825194860194909452825193850193909352905190519192916080830191610c40916116af565b815250878681518110610c5557610c55611730565b60200260200101819052508480610c6b906116de565b955050508080610c7a906116de565b915050610b9e565b50508080610c8f906116de565b915050610b65565b50505090565b60606035805480602002602001604051908101604052809291908181526020018280548015610cf557602002820191906000526020600020905b81546001600160a01b03168152600190910190602001808311610cd7575b5050505050905090565b600060026001541415610d545760405162461bcd60e51b815260206004820152601f60248201527f5265656e7472616e637947756172643a207265656e7472616e742063616c6c006044820152606401610595565b60026001556001600160a01b038216610dc05760405162461bcd60e51b815260206004820152602860248201527f4861717156657374696e673a2062656e65666963696172792061646472657373604482015267206973207a65726f60c01b6064820152608401610595565b60003411610e105760405162461bcd60e51b815260206004820181905260248201527f4861717156657374696e673a206465706f7369742073756d206973207a65726f6044820152606401610595565b6001600160a01b038216600090815260336020526040812080548290610e35906116de565b918290555090506005811115610ea15760405162461bcd60e51b815260206004820152602b60248201527f4d6178206465706f736974206e756d62657220666f722074686973206164647260448201526a195cdcc81c995858da195960aa1b6064820152608401610595565b6000610eae60183461168d565b90506000846001600160a01b03168260405160006040518083038185875af1925050503d8060008114610efd576040519150601f19603f3d011682016040523d82523d6000602084013e610f02565b606091505b5050905080610f4a5760405162461bcd60e51b81526020600482015260146024820152732330b4b632b2103a379039b2b7321022ba3432b960611b6044820152606401610595565b60405182815233906001600160a01b038716907f565848cdb1369b8f0e5b0f6eb298a192163a96cf9f692903ec5f14cd2c0b7b659060200160405180910390a360408051606081018252428082523460208084018281528486018881526001600160a01b038c166000818152603485528881208c825285528890209651875591516001870155516002909501949094558451918252339082015290928692917f7a96fe6dfcc54565c447f8c7708e3eadc4fc71f36ae29781f6617d3da8551c4b910160405180910390a461101d856107b9565b61106d57603580546001810182556000919091527fcfa4bec1d3298408bb5afcfcd9c430549c5b31f8aa5c5848151c0a55f473c34d0180546001600160a01b0319166001600160a01b0387161790555b505060018080559392505050565b600080600061108a8585610823565b905060188114156110c3576001600160a01b038516600090815260346020908152604080832087845290915290206001015491506110da565b6110cd85856103fc565b6110d7908261175c565b91505b6001600160a01b038516600090815260346020908152604080832087845290915290206002015461110b90836116af565b95945050505050565b336000908152603360205260409020546111405760405162461bcd60e51b8152600401610595906116f9565b6001600160a01b038116600090815260336020526040902054156111a65760405162461bcd60e51b815260206004820152601d60248201527f4f6e6c7920656d707479206163636f756e7420697320616c6c6f7765640000006044820152606401610595565b60015b33600090815260336020526040902054811161126e5733600081815260346020818152604080842086855282528084206001600160a01b0388168086529383528185208786528352818520815481556001808301805491830191825560028085018054918501919091559388905587905595909155549354815190815291820194909452919284927f7a96fe6dfcc54565c447f8c7708e3eadc4fc71f36ae29781f6617d3da8551c4b910160405180910390a480611266816116de565b9150506111a9565b503360008181526033602052604080822080546001600160a01b038616845291832091909155828252556112a1906112fe565b506112ab816107b9565b6112fb57603580546001810182556000919091527fcfa4bec1d3298408bb5afcfcd9c430549c5b31f8aa5c5848151c0a55f473c34d0180546001600160a01b0319166001600160a01b0383161790555b50565b6000611309826107b9565b61131557506000919050565b603554600090611327906001906116af565b67ffffffffffffffff81111561133f5761133f611746565b604051908082528060200260200182016040528015611368578160200160208202803683370190505b5090506000805b60355481101561142b57846001600160a01b03166035828154811061139657611396611730565b6000918252602090912001546001600160a01b03161461141957603581815481106113c3576113c3611730565b9060005260206000200160009054906101000a90046001600160a01b03168383815181106113f3576113f3611730565b6001600160a01b039092166020928302919091019091015281611415816116de565b9250505b80611423816116de565b91505061136f565b50815161143f90603590602085019061144a565b506001949350505050565b82805482825590600052602060002090810192821561149f579160200282015b8281111561149f57825182546001600160a01b0319166001600160a01b0390911617825560209092019160019091019061146a565b506114ab9291506114af565b5090565b5b808211156114ab57600081556001016114b0565b6000602082840312156114d657600080fd5b5035919050565b80356001600160a01b03811681146114f457600080fd5b919050565b6000806040838503121561150c57600080fd5b611515836114dd565b946020939093013593505050565b60006020828403121561153557600080fd5b61042f826114dd565b6000806020838503121561155157600080fd5b823567ffffffffffffffff8082111561156957600080fd5b818501915085601f83011261157d57600080fd5b81358181111561158c57600080fd5b8660208260051b85010111156115a157600080fd5b60209290920196919550909350505050565b602080825282518282018190526000919060409081850190868401855b8281101561161d57815180516001600160a01b0316855286810151878601528581015186860152606080820151908601526080908101519085015260a090930192908501906001016115d0565b5091979650505050505050565b6020808252825182820181905260009190848201906040850190845b8181101561166b5783516001600160a01b031683529284019291840191600101611646565b50909695505050505050565b634e487b7160e01b600052601160045260246000fd5b6000826116aa57634e487b7160e01b600052601260045260246000fd5b500490565b6000828210156116c1576116c1611677565b500390565b600082198211156116d9576116d9611677565b500190565b60006000198214156116f2576116f2611677565b5060010190565b6020808252601c908201527f4e6f206465706f7369747320666f722074686973206164647265737300000000604082015260600190565b634e487b7160e01b600052603260045260246000fd5b634e487b7160e01b600052604160045260246000fd5b600081600019048311821515161561177657611776611677565b50029056fea26469706673582212201c9ab18997f7bdffd7f96c71985b075efed32523a3e005963d1fbc62a5123a3564736f6c634300080c0033",
  "linkReferences": {},
  "deployedLinkReferences": {}
}